{
  "contractName": "CarServiceContract",
  "abi": [
    {
      "constant": true,
      "inputs": [
        {
          "name": "",
          "type": "uint256"
        }
      ],
      "name": "services",
      "outputs": [
        {
          "name": "id",
          "type": "uint256"
        },
        {
          "name": "vin",
          "type": "string"
        },
        {
          "name": "fileHash",
          "type": "string"
        }
      ],
      "payable": false,
      "stateMutability": "view",
      "type": "function",
      "signature": "0xc22c4f43"
    },
    {
      "inputs": [],
      "payable": false,
      "stateMutability": "nonpayable",
      "type": "constructor",
      "signature": "constructor"
    },
    {
      "constant": false,
      "inputs": [
        {
          "name": "_vin",
          "type": "string"
        },
        {
          "name": "_hash",
          "type": "string"
        }
      ],
      "name": "addService",
      "outputs": [],
      "payable": false,
      "stateMutability": "nonpayable",
      "type": "function",
      "signature": "0x8b0cc5d1"
    },
    {
      "constant": true,
      "inputs": [
        {
          "name": "_vin",
          "type": "string"
        }
      ],
      "name": "getServices",
      "outputs": [
        {
          "name": "",
          "type": "string[]"
        }
      ],
      "payable": false,
      "stateMutability": "view",
      "type": "function",
      "signature": "0x94cfd7db"
    }
  ],
  "bytecode": "0x60806040526000805534801561001457600080fd5b506100986040805190810160405280600981526020017f31323334353637383900000000000000000000000000000000000000000000008152506040805190810160405280600581526020017f686173683100000000000000000000000000000000000000000000000000000081525061009d640100000000026401000000009004565b6101ad565b604080516060810182526000805480835260208084018781528486018790529183526001808252949092208351815590518051939491936100e693928501929190910190610112565b5060408201518051610102916002840191602090910190610112565b5050600080546001019055505050565b828054600181600116156101000203166002900490600052602060002090601f016020900481019282601f1061015357805160ff1916838001178555610180565b82800160010185558215610180579182015b82811115610180578251825591602001919060010190610165565b5061018c929150610190565b5090565b6101aa91905b8082111561018c5760008155600101610196565b90565b610842806101bc6000396000f3fe6080604052600436106100565763ffffffff7c01000000000000000000000000000000000000000000000000000000006000350416638b0cc5d1811461005b57806394cfd7db1461007d578063c22c4f43146100b3575b600080fd5b34801561006757600080fd5b5061007b6100763660046105e9565b6100e2565b005b34801561008957600080fd5b5061009d6100983660046105ac565b610157565b6040516100aa919061071b565b60405180910390f35b3480156100bf57600080fd5b506100d36100ce366004610652565b610372565b6040516100aa9392919061072c565b6040805160608101825260008054808352602080840187815284860187905291835260018082529490922083518155905180519394919361012b939285019291909101906104aa565b50604082015180516101479160028401916020909101906104aa565b5050600080546001019055505050565b60608060005460405190808252806020026020018201604052801561019057816020015b606081526020019060019003908161017b5790505b5090506000805b6000548110156102ec57848051906020012060016000838152602001908152602001600020600101604051808280546001816001161561010002031660029004801561021a5780601f106101f857610100808354040283529182019161021a565b820191906000526020600020905b815481529060010190602001808311610206575b5050915050604051809103902014156102e4576000818152600160208181526040928390206002908101805485519481161561010002600019011691909104601f81018390048302840183019094528383529192908301828280156102c05780601f10610295576101008083540402835291602001916102c0565b820191906000526020600020905b8154815290600101906020018083116102a357829003601f168201915b505050505083838151811015156102d357fe5b602090810290910101526001909101905b600101610197565b5060608160405190808252806020026020018201604052801561032357816020015b606081526020019060019003908161030e5790505b50905060005b8281101561036957838181518110151561033f57fe5b90602001906020020151828281518110151561035757fe5b60209081029091010152600101610329565b50949350505050565b600160208181526000928352604092839020805481840180548651600296821615610100026000190190911695909504601f8101859004850286018501909652858552909491939290919083018282801561040e5780601f106103e35761010080835404028352916020019161040e565b820191906000526020600020905b8154815290600101906020018083116103f157829003601f168201915b50505060028085018054604080516020601f60001961010060018716150201909416959095049283018590048502810185019091528181529596959450909250908301828280156104a05780601f10610475576101008083540402835291602001916104a0565b820191906000526020600020905b81548152906001019060200180831161048357829003601f168201915b5050505050905083565b828054600181600116156101000203166002900490600052602060002090601f016020900481019282601f106104eb57805160ff1916838001178555610518565b82800160010185558215610518579182015b828111156105185782518255916020019190600101906104fd565b50610524929150610528565b5090565b61054291905b80821115610524576000815560010161052e565b90565b6000601f8201831361055657600080fd5b813561056961056482610790565b610769565b9150808252602083016020830185838301111561058557600080fd5b6105908382846107c2565b50505092915050565b60006105a58235610542565b9392505050565b6000602082840312156105be57600080fd5b813567ffffffffffffffff8111156105d557600080fd5b6105e184828501610545565b949350505050565b600080604083850312156105fc57600080fd5b823567ffffffffffffffff81111561061357600080fd5b61061f85828601610545565b925050602083013567ffffffffffffffff81111561063c57600080fd5b61064885828601610545565b9150509250929050565b60006020828403121561066457600080fd5b60006105e18484610599565b600061067b826107be565b80845260208401935083602082028501610694856107b8565b60005b848110156106cb5783830388526106af8383516106d7565b92506106ba826107b8565b602098909801979150600101610697565b50909695505050505050565b60006106e2826107be565b8084526106f68160208601602086016107ce565b6106ff816107fe565b9093016020019392505050565b61071581610542565b82525050565b602080825281016105a58184610670565b6060810161073a828661070c565b818103602083015261074c81856106d7565b9050818103604083015261076081846106d7565b95945050505050565b60405181810167ffffffffffffffff8111828210171561078857600080fd5b604052919050565b600067ffffffffffffffff8211156107a757600080fd5b506020601f91909101601f19160190565b60200190565b5190565b82818337506000910152565b60005b838110156107e95781810151838201526020016107d1565b838111156107f8576000848401525b50505050565b601f01601f19169056fea265627a7a72305820b1a83406a68333e272a66d303255ffaf35c6e110982353fcc4576ca4480ec4dd6c6578706572696d656e74616cf50037",
  "source": "pragma solidity ^0.5.0;\r\npragma experimental ABIEncoderV2;\r\n\r\ncontract CarServiceContract{\r\n    uint serviceCount = 0;\r\n\r\n    struct Service{\r\n        uint id;\r\n        string vin;\r\n        string fileHash;\r\n    }\r\n\r\n    mapping(uint => Service) public services;\r\n\r\n    constructor () public {\r\n        addService(\"123456789\", \"hash1\");\r\n    }\r\n\r\n    function addService(string memory _vin, string memory _hash)public {\r\n        services[serviceCount] = Service(serviceCount, _vin, _hash);\r\n        serviceCount++;\r\n    }\r\n\r\n    function getServices(string memory _vin) public view returns(string[] memory){\r\n        string[] memory temp = new string[](serviceCount);\r\n        uint counter = 0;\r\n\r\n        for(uint i =0; i < serviceCount; i++){\r\n            if( keccak256(bytes(services[i].vin)) == keccak256(bytes(_vin)) ){\r\n                temp[counter] = services[i].fileHash;\r\n                counter++;\r\n            }\r\n        }\r\n\r\n        string[] memory result = new string[](counter);\r\n        for (uint j = 0; j < counter; j++){\r\n            result[j] = temp[j];\r\n        }\r\n\r\n        return result;\r\n    }\r\n}",
  "sourcePath": "D:/Windows/Projects/My Project/car-service-management-using-ethereum-ipfs/src/truffle/contracts/CarServiceContract.sol",
  "compiler": {
    "name": "solc",
    "version": "0.5.0+commit.1d4f565a.Emscripten.clang"
  },
  "schemaVersion": "3.0.1",
  "updatedAt": "2023-08-10T03:50:34.242Z",
  "devdoc": {
    "methods": {}
  },
  "userdoc": {
    "methods": {}
  }
}