{
  "contractName": "CarServiceContract",
  "abi": [
    {
      "constant": true,
      "inputs": [],
      "name": "owner",
      "outputs": [
        {
          "name": "",
          "type": "address"
        }
      ],
      "payable": false,
      "stateMutability": "view",
      "type": "function",
      "signature": "0x8da5cb5b"
    },
    {
      "constant": true,
      "inputs": [
        {
          "name": "",
          "type": "uint256"
        }
      ],
      "name": "services",
      "outputs": [
        {
          "name": "id",
          "type": "uint256"
        },
        {
          "name": "vin",
          "type": "string"
        },
        {
          "name": "fileHash",
          "type": "string"
        }
      ],
      "payable": false,
      "stateMutability": "view",
      "type": "function",
      "signature": "0xc22c4f43"
    },
    {
      "inputs": [],
      "payable": false,
      "stateMutability": "nonpayable",
      "type": "constructor",
      "signature": "constructor"
    },
    {
      "constant": false,
      "inputs": [
        {
          "name": "_vin",
          "type": "string"
        },
        {
          "name": "_hash",
          "type": "string"
        }
      ],
      "name": "addService",
      "outputs": [],
      "payable": false,
      "stateMutability": "nonpayable",
      "type": "function",
      "signature": "0x8b0cc5d1"
    },
    {
      "constant": true,
      "inputs": [
        {
          "name": "_vin",
          "type": "string"
        }
      ],
      "name": "getServices",
      "outputs": [
        {
          "name": "",
          "type": "string[]"
        }
      ],
      "payable": false,
      "stateMutability": "view",
      "type": "function",
      "signature": "0x94cfd7db"
    }
  ],
  "bytecode": "0x60806040526000805534801561001457600080fd5b5060018054600160a060020a0319163317905561095c806100366000396000f3fe6080604052600436106100615763ffffffff7c01000000000000000000000000000000000000000000000000000000006000350416638b0cc5d181146100665780638da5cb5b1461008857806394cfd7db146100b3578063c22c4f43146100e0575b600080fd5b34801561007257600080fd5b50610086610081366004610688565b61010f565b005b34801561009457600080fd5b5061009d6101db565b6040516100aa91906107f3565b60405180910390f35b3480156100bf57600080fd5b506100d36100ce36600461064b565b6101f7565b6040516100aa9190610807565b3480156100ec57600080fd5b506101006100fb3660046106f1565b610412565b6040516100aa93929190610828565b60015473ffffffffffffffffffffffffffffffffffffffff163314610169576040517f08c379a000000000000000000000000000000000000000000000000000000000815260040161016090610818565b60405180910390fd5b6040805160608101825260008054808352602080840187815284860187905291835260028152939091208251815590518051929391926101af9260018501920190610549565b50604082015180516101cb916002840191602090910190610549565b5050600080546001019055505050565b60015473ffffffffffffffffffffffffffffffffffffffff1681565b60608060005460405190808252806020026020018201604052801561023057816020015b606081526020019060019003908161021b5790505b5090506000805b60005481101561038c5784805190602001206002600083815260200190815260200160002060010160405180828054600181600116156101000203166002900480156102ba5780601f106102985761010080835404028352918201916102ba565b820191906000526020600020905b8154815290600101906020018083116102a6575b505091505060405180910390201415610384576000818152600260208181526040928390208201805484516001821615610100026000190190911693909304601f81018390048302840183019094528383529192908301828280156103605780601f1061033557610100808354040283529160200191610360565b820191906000526020600020905b81548152906001019060200180831161034357829003601f168201915b5050505050838381518110151561037357fe5b602090810290910101526001909101905b600101610237565b506060816040519080825280602002602001820160405280156103c357816020015b60608152602001906001900390816103ae5790505b50905060005b828110156104095783818151811015156103df57fe5b9060200190602002015182828151811015156103f757fe5b602090810290910101526001016103c9565b50949350505050565b60026020818152600092835260409283902080546001808301805487519281161561010002600019011695909504601f81018590048502820185019096528581529094919390929091908301828280156104ad5780601f10610482576101008083540402835291602001916104ad565b820191906000526020600020905b81548152906001019060200180831161049057829003601f168201915b50505060028085018054604080516020601f600019610100600187161502019094169590950492830185900485028101850190915281815295969594509092509083018282801561053f5780601f106105145761010080835404028352916020019161053f565b820191906000526020600020905b81548152906001019060200180831161052257829003601f168201915b5050505050905083565b828054600181600116156101000203166002900490600052602060002090601f016020900481019282601f1061058a57805160ff19168380011785556105b7565b828001600101855582156105b7579182015b828111156105b757825182559160200191906001019061059c565b506105c39291506105c7565b5090565b6105e191905b808211156105c357600081556001016105cd565b90565b6000601f820183136105f557600080fd5b81356106086106038261088c565b610865565b9150808252602083016020830185838301111561062457600080fd5b61062f8382846108dc565b50505092915050565b600061064482356105e1565b9392505050565b60006020828403121561065d57600080fd5b813567ffffffffffffffff81111561067457600080fd5b610680848285016105e4565b949350505050565b6000806040838503121561069b57600080fd5b823567ffffffffffffffff8111156106b257600080fd5b6106be858286016105e4565b925050602083013567ffffffffffffffff8111156106db57600080fd5b6106e7858286016105e4565b9150509250929050565b60006020828403121561070357600080fd5b60006106808484610638565b610718816108be565b82525050565b6000610729826108ba565b80845260208401935083602082028501610742856108b4565b60005b8481101561077957838303885261075d838351610785565b9250610768826108b4565b602098909801979150600101610745565b50909695505050505050565b6000610790826108ba565b8084526107a48160208601602086016108e8565b6107ad81610918565b9093016020019392505050565b600d81527f4163636573732064656e69656400000000000000000000000000000000000000602082015260400190565b610718816105e1565b60208101610801828461070f565b92915050565b60208082528101610644818461071e565b60208082528101610801816107ba565b6060810161083682866107ea565b81810360208301526108488185610785565b9050818103604083015261085c8184610785565b95945050505050565b60405181810167ffffffffffffffff8111828210171561088457600080fd5b604052919050565b600067ffffffffffffffff8211156108a357600080fd5b506020601f91909101601f19160190565b60200190565b5190565b600073ffffffffffffffffffffffffffffffffffffffff8216610801565b82818337506000910152565b60005b838110156109035781810151838201526020016108eb565b83811115610912576000848401525b50505050565b601f01601f19169056fea265627a7a72305820047511269481fb62a5deb0d0de14765e07889dc421725f7c12b9ef5e321260186c6578706572696d656e74616cf50037",
  "source": "pragma solidity ^0.5.0;\r\npragma experimental ABIEncoderV2;\r\n\r\ncontract CarServiceContract{\r\n    uint serviceCount = 0;\r\n    address public owner;\r\n\r\n    struct Service{\r\n        uint id;\r\n        string vin;\r\n        string fileHash;\r\n    }\r\n\r\n    mapping(uint => Service) public services;\r\n\r\n    constructor () public {\r\n        owner = msg.sender;\r\n    }\r\n\r\n    modifier onlyOwner(){\r\n        require(msg.sender == owner, \"Access denied\");\r\n        _;\r\n    }\r\n\r\n    function addService(string memory _vin, string memory _hash) public onlyOwner {\r\n        services[serviceCount] = Service(serviceCount, _vin, _hash);\r\n        serviceCount++;\r\n    }\r\n\r\n    function getServices(string memory _vin) public view returns(string[] memory){\r\n        string[] memory temp = new string[](serviceCount);\r\n        uint counter = 0;\r\n\r\n        for(uint i =0; i < serviceCount; i++){\r\n            if( keccak256(bytes(services[i].vin)) == keccak256(bytes(_vin)) ){\r\n                temp[counter] = services[i].fileHash;\r\n                counter++;\r\n            }\r\n        }\r\n\r\n        string[] memory result = new string[](counter);\r\n        for (uint j = 0; j < counter; j++){\r\n            result[j] = temp[j];\r\n        }\r\n\r\n        return result;\r\n    }\r\n}",
  "sourcePath": "D:/Windows/Projects/My Project/car-service-management-using-ethereum-ipfs/src/truffle/contracts/CarServiceContract.sol",
  "compiler": {
    "name": "solc",
    "version": "0.5.0+commit.1d4f565a.Emscripten.clang"
  },
  "schemaVersion": "3.0.1",
  "updatedAt": "2023-08-10T14:19:02.157Z",
  "devdoc": {
    "methods": {}
  },
  "userdoc": {
    "methods": {}
  }
}